:020000040800F2
:100000000080012049080008D1070008D707000830
:10001000DD070008E3070008E9070008000000000A
:10002000000000000000000000000000EF070008D2
:10003000FD070008000000000B0800081908000870
:10004000990800089908000899080008990800080C
:1000500099080008990800089908000899080008FC
:1000600099080008990800089908000899080008EC
:1000700099080008990800089908000899080008DC
:100080009908000899080008990800080000000075
:1000900000000000000000000000000099080008B7
:1000A00099080008990800089908000899080008AC
:1000B000990800089908000899080008990800089C
:1000C000990800089908000899080008990800088C
:1000D0009908000899080008990800080000000025
:1000E0009908000899080008990800080000000015
:1000F0000000000000000000000000009908000857
:1001000000000000990800089908000899080008F4
:1001100000000000000000000000000000000000DF
:10012000990800089908000899080008990800082B
:100130009908000800000000000000000000000016
:100140000000000000000000000000009908000806
:1001500099080008990800089908000899080008FB
:10016000990800089908000800000000000000003D
:10017000000000000000000000000000000000007F
:1001800000000000990800080000000000000000C6
:0401900099080008C2
:1001940010B5054C237833B9044B13B10448AFF3BD
:1001A40000800123237010BD0C000020000000001B
:1001B400A017000808B5034B1BB103490348AFF36C
:1001C400008008BD0000000010000020A0170008F7
:1001D40053B94AB9002908BF00281CBF4FF0FF31AA
:1001E4004FF0FF3000F074B9ADF1080C6DE904CEA6
:1001F40000F006F8DDF804E0DDE9022304B07047FE
:100204002DE9F047089D04468E46002B4DD18A42C5
:10021400944669D9B2FA82F252B101FA02F3C2F1F8
:10022400200120FA01F10CFA02FC41EA030E944089
:100234004FEA1C48210CBEFBF8F61FFA8CF708FBAA
:1002440016E341EA034306FB07F199420AD91CEB82
:10025400030306F1FF3080F01F81994240F21C81B4
:10026400023E63445B1AA4B2B3FBF8F008FB1033FC
:1002740044EA034400FB07F7A7420AD91CEB040431
:1002840000F1FF3380F00A81A74240F20781644401
:10029400023840EA0640E41B00261DB1D440002386
:1002A400C5E900433146BDE8F0878B4209D9002DEA
:1002B40000F0EF800026C5E9000130463146BDE874
:1002C400F087B3FA83F6002E4AD18B4202D38242DE
:1002D40000F2F980841A61EB030301209E46002D8D
:1002E400E0D0C5E9004EDDE702B9FFDEB2FA82F2E2
:1002F400002A40F09280A1EB0C014FEA1C471FFA40
:100304008CFE0126200CB1FBF7F307FB131140EA26
:1003140001410EFB03F0884208D91CEB010103F1F3
:10032400FF3802D2884200F2CB804346091AA4B2B5
:10033400B1FBF7F007FB101144EA01440EFB00FE89
:10034400A64508D91CEB040400F1FF3102D2A645EE
:1003540000F2BB800846A4EB0E0440EA03409CE78D
:10036400C6F12007B34022FA07FC4CEA030C20FA3A
:1003740007F401FA06F31C43F9404FEA1C4900FA5A
:1003840006F3B1FBF9F8200C1FFA8CFE09FB1811D7
:1003940040EA014108FB0EF0884202FA06F20BD94A
:1003A4001CEB010108F1FF3A80F08880884240F29A
:1003B4008580A8F102086144091AA4B2B1FBF9F0DE
:1003C40009FB101144EA014100FB0EFE8E4508D9D9
:1003D4001CEB010100F1FF346CD28E456AD902385E
:1003E400614440EA0840A0FB0294A1EB0E01A14243
:1003F400C846A64656D353D05DB1B3EB080261EBB1
:100404000E0101FA07F722FA06F3F1401F43C5E98A
:10041400007100263146BDE8F087C2F12003D840C0
:100424000CFA02FC21FA03F3914001434FEA1C4702
:100434001FFA8CFEB3FBF7F007FB10360B0C43EAF4
:10044400064300FB0EF69E4204FA02F408D91CEBA4
:10045400030300F1FF382FD29E422DD902386344A2
:100464009B1B89B2B3FBF7F607FB163341EA034142
:1004740006FB0EF38B4208D91CEB010106F1FF3891
:1004840016D28B4214D9023E6144C91A46EA004688
:1004940038E72E46284605E70646E3E61846F8E61A
:1004A4004B45A9D2B9EB020864EB0C0E0138A3E763
:1004B4004646EAE7204694E74046D1E7D0467BE744
:1004C400023B614432E7304609E76444023842E7BC
:1004D400704700BF90B589B000AF00F0DDF900F0BF
:1004E4006DF800F0CBF8314B3C1D0FCB84E80F00C6
:1004F4000023FB6101212E4800F0CEFC0346002BB3
:10050400F8D000BF01212A4800F0C6FC0346002BA6
:10051400F8D1642000F032FAFB690133FB61FB6916
:100524005A4203F00F0302F00F0258BF5342FB611B
:100534000023BB6116E0BB690C33012202FA03F30A
:1005440099B20122BB6902FA03F35AB2FB695BB2A6
:1005540013405BB2DBB21A46164800F0B5FCBB6927
:100564000133BB61BB69032BE5DD00237B6119E02B
:1005740001227B6902FA03F398B201227B6902FA31
:1005840003F35AB2391DFB690B441B785BB2134069
:100594005BB2DBB21A460146074800F095FC7B6962
:1005A40001337B617B69062BE2DDA3E7B817000802
:1005B4000010024000000240000C024080B594B0DC
:1005C40000AF07F1200330220021184601F0DEF8C5
:1005D40007F10C0300221A605A609A60DA601A610B
:1005E4000023BB60234B1B6C224A43F080531364EB
:1005F400204B1B6C03F08053BB60BB6800237B6003
:100604001D4B1B6823F440431B4A43F4004313600F
:10061400194B1B6803F440437B607B6802233B62F5
:100624000123FB6210233B630023BB6307F1200318
:10063400184600F063FC0346002B01D000F098F844
:100644000F23FB6000233B6100237B610023BB611C
:100654000023FB6107F10C030021184600F0C6FEDD
:100664000346002B01D000F083F800BF5037BD468D
:1006740080BD00BF003802400070004080B588B0E3
:1006840000AF07F10C0300221A605A609A60DA6026
:100694001A610023BB60324B1B6B314A43F00103E8
:1006A40013632F4B1B6B03F00103BB60BB68002378
:1006B4007B602B4B1B6B2A4A43F008031363284BC4
:1006C4001B6B03F008037B607B6800233B60244BB7
:1006D4001B6B234A43F010031363214B1B6B03F082
:1006E40010033B603B6800224FF470411D4800F04A
:1006F400EBFB01223F211C4800F0E6FB00224021D5
:10070400194800F0E1FB4FF47043FB6001233B61A7
:1007140000237B610023BB6107F10C0319461148D8
:1007240000F036FA7F23FB6001233B6100237B61E9
:100734000023BB6107F10C0319460B4800F028FAAB
:100744000123FB6000233B6102237B6107F10C035F
:100754001946064800F01CFA00BF2037BD4680BD8C
:100764000038024000000240000C02400010024029
:1007740080B400AF72B600BFFEE7000080B483B05F
:1007840000AF00237B60104B5B6C0F4A43F4804343
:1007940053640D4B5B6C03F480437B607B680023E4
:1007A4003B60094B1B6C084A43F080531364064BAF
:1007B4001B6C03F080533B603B6800BF0C37BD46A5
:1007C4005DF8047B704700BF0038024080B400AF7E
:1007D400FEE780B400AFFEE780B400AFFEE780B46C
:1007E40000AFFEE780B400AFFEE780B400AF00BF07
:1007F400BD465DF8047B704780B400AF00BFBD46C2
:100804005DF8047B704780B400AF00BFBD465DF85F
:10081400047B704780B500AF00F090F800BF80BD46
:1008240080B400AF064BD3F88830054A43F4700314
:10083400C2F8883000BFBD465DF8047B704700BF36
:1008440000ED00E0DFF834D00D480E490E4A0023D5
:1008540002E0D458C4500433C4188C42F9D30B4A70
:100864000B4C002301E013600432A242FBD3FFF7D8
:10087400D7FF00F067FFFFF72DFE704700800120CF
:10088400000000200C000020E81700080C000020E5
:100894002C000020FEE7000080B500AF0E4B1B6863
:1008A4000D4A43F4007313600B4B1B680A4A43F46C
:1008B40080631360084B1B68074A43F4807313601A
:1008C400032000F031F90F2000F008F8FFF756FF7D
:1008D4000023184680BD00BF003C024080B582B0B2
:1008E40000AF7860124B1A68124B1B7819464FF40C
:1008F4007A73B3FBF1F3B2FBF3F3184600F03BF960
:100904000346002B01D001230EE07B680F2B0AD88D
:10091400002279684FF0FF3000F011F9064A7B6835
:100924001360002300E0012318460837BD4680BD4C
:1009340000000020080000200400002080B400AF64
:10094400064B1B781A46064B1B681344044A136073
:1009540000BFBD465DF8047B704700BF080000205F
:100964002800002080B400AF034B1B681846BD4626
:100974005DF8047B704700BF2800002080B584B078
:1009840000AF7860FFF7EEFFB8607B68FB60FB6840
:10099400B3F1FF3F05D00A4B1B781A46FB6813449A
:1009A400FB6000BFFFF7DEFF0246BB68D31AFA689C
:1009B4009A42F7D800BF00BF1037BD4680BD00BFC4
:1009C4000800002080B485B000AF78607B6803F035
:1009D4000703FB600C4BDB68BB60BA684FF6FF0390
:1009E4001340BB60FB681A02BB68134343F0BF6348
:1009F40043F40033BB60044ABB68D36000BF1437C0
:100A0400BD465DF8047B704700ED00E080B400AFA4
:100A1400044BDB681B0A03F007031846BD465DF868
:100A2400047B704700ED00E080B483B000AF034660
:100A34003960FB7197F90730002B0ADB3B68DAB2A7
:100A44000C4997F907301201D2B20B4483F8002302
:100A54000AE03B68DAB20849FB7903F00F03043B70
:100A64001201D2B20B441A7600BF0C37BD465DF8B2
:100A7400047B704700E100E000ED00E080B489B041
:100A840000AFF860B9607A60FB6803F00703FB61AC
:100A9400FB69C3F10703042B28BF0423BB61FB6973
:100AA4000433062B02D9FB69033B00E000237B617E
:100AB4004FF0FF32BB6902FA03F3DA43BB681A4012
:100AC4007B699A404FF0FF317B6901FA03F3D94304
:100AD4007B680B40134318462437BD465DF8047BFE
:100AE4007047000080B582B000AF78607B68013B3E
:100AF400B3F1807F01D301230FE00A4A7B68013BF5
:100B040053600F214FF0FF30FFF78EFF054B00229B
:100B14009A60044B07221A60002318460837BD4622
:100B240080BD00BF10E000E080B582B000AF786007
:100B34007868FFF747FF00BF0837BD4680BD80B522
:100B440086B000AF0346B9607A60FB7300237B6113
:100B5400FFF75CFF78617A68B9687869FFF78EFF00
:100B6400024697F90F3011461846FFF75DFF00BFA4
:100B74001837BD4680BD80B582B000AF7860786814
:100B8400FFF7B0FF034618460837BD4680BD000096
:100B940080B489B000AF7860396000237B610023A2
:100BA4003B610023BB610023FB6159E10122FB6926
:100BB40002FA03F37B613B681B687A6913403B616B
:100BC4003A697B699A4240F048813B685B6803F06C
:100BD4000303012B05D03B685B6803F00303022B7E
:100BE40030D17B689B68BB61FB695B00032202FA1E
:100BF40003F3DB43BA691340BB613B68DA68FB6902
:100C04005B0002FA03F3BA691343BB617B68BA69F8
:100C14009A607B685B68BB610122FB6902FA03F39B
:100C2400DB43BA691340BB613B685B681B0903F093
:100C34000102FB6902FA03F3BA691343BB617B68DF
:100C4400BA695A603B685B6803F00303032B17D04F
:100C54007B68DB68BB61FB695B00032202FA03F378
:100C6400DB43BA691340BB613B689A68FB695B006C
:100C740002FA03F3BA691343BB617B68BA69DA60A9
:100C84003B685B6803F00303022B23D1FB69DA089A
:100C94007B68083253F82230BB61FB6903F0070319
:100CA4009B000F2202FA03F3DB43BA691340BB61D2
:100CB4003B681A69FB6903F007039B0002FA03F31C
:100CC400BA691343BB61FB69DA087B680832B96906
:100CD40043F822107B681B68BB61FB695B0003223D
:100CE40002FA03F3DB43BA691340BB613B685B68F8
:100CF40003F00302FB695B0002FA03F3BA691343CE
:100D0400BB617B68BA691A603B685B6803F4403373
:100D1400002B00F0A2800023FB60574B5B6C564A0B
:100D240043F480435364544B5B6C03F48043FB6093
:100D3400FB68524AFB699B08023352F82330BB61BB
:100D4400FB6903F003039B000F2202FA03F3DB4366
:100D5400BA691340BB617B68494A934219D07B68E6
:100D6400484A934213D07B68474A93420DD07B682C
:100D7400464A934207D07B68454A934201D10423F3
:100D840008E0072306E0032304E0022302E0012332
:100D940000E00023FA6902F0030292009340BA696A
:100DA4001343BB613549FB699B080233BA6941F8B7
:100DB4002320384B9B68BB613B69DB43BA69134012
:100DC400BB613B685B6803F48013002B03D0BA69F2
:100DD4003B691343BB612F4ABB6993602D4BDB68AE
:100DE400BB613B69DB43BA691340BB613B685B6829
:100DF40003F40013002B03D0BA693B691343BB61AE
:100E0400244ABB69D360234B5B68BB613B69DB430A
:100E1400BA691340BB613B685B6803F40033002B81
:100E240003D0BA693B691343BB611A4ABB69536077
:100E3400184B1B68BB613B69DB43BA691340BB6158
:100E44003B685B6803F48033002B03D0BA693B69C9
:100E54001343BB610F4ABB691360FB690133FB6138
:100E6400FB690F2B7FF6A2AE00BF00BF2437BD463F
:100E74005DF8047B704700BF003802400038014031
:100E8400000002400004024000080240000C02403E
:100E940000100240003C014080B485B000AF78608F
:100EA4000B467B807B681A697B881340002B02D039
:100EB4000123FB7301E00023FB73FB7B184614370B
:100EC400BD465DF8047B704780B483B000AF7860A2
:100ED4000B467B8013467B707B78002B03D07A888B
:100EE4007B689A6103E07B881A047B689A6100BF7F
:100EF4000C37BD465DF8047B7047000080B586B0B2
:100F040000AF78607B68002B01D1012367E27B6826
:100F14001B6803F00103002B75D0884B9B6803F01A
:100F24000C03042B0CD0854B9B6803F00C03082B9B
:100F340012D1824B5B6803F48003B3F5800F0BD1AD
:100F44007E4B1B6803F40033002B5BD07B685B682B
:100F5400002B57D1012342E27B685B68B3F5803FE5
:100F640006D1764B1B68754A43F4803313601DE049
:100F74007B685B68B3F5A02F0CD1704B1B686F4A7C
:100F840043F4802313606D4B1B686C4A43F4803335
:100F940013600BE0694B1B68684A23F480331360C9
:100FA400664B1B68654A23F4802313607B685B6887
:100FB400002B13D0FFF7D6FC386108E0FFF7D2FC12
:100FC40002463B69D31A642B01D9032307E25B4B26
:100FD4001B6803F40033002BF0D014E0FFF7C2FCCD
:100FE400386108E0FFF7BEFC02463B69D31A642B64
:100FF40001D90323F3E1514B1B6803F40033002BA5
:10100400F0D100E000BF7B681B6803F00203002BF3
:1010140063D04A4B9B6803F00C03002B0BD0474B67
:101024009B6803F00C03082B1CD1444B5B6803F44E
:101034008003002B16D1414B1B6803F00203002BE5
:1010440005D07B68DB68012B01D00123C7E13B4B52
:101054001B6823F0F8027B681B69DB0037491343E4
:101064000B603AE07B68DB68002B20D0344B012214
:101074001A60FFF777FC386108E0FFF773FC02465B
:101084003B69D31A022B01D90323A8E12B4B1B681C
:1010940003F00203002BF0D0284B1B6823F0F80266
:1010A4007B681B69DB00254913430B6015E0244B67
:1010B40000221A60FFF756FC386108E0FFF752FC83
:1010C40002463B69D31A022B01D9032387E11B4B48
:1010D4001B6803F00203002BF0D17B681B6803F04C
:1010E4000803002B36D07B685B69002B16D0154BA8
:1010F40001221A60FFF736FC386108E0FFF732FC82
:1011040002463B69D31A022B01D9032367E10B4B37
:101114005B6F03F00203002BF0D01BE0094B0022AD
:101124001A60FFF71FFC38610EE0FFF71BFC024654
:101134003B69D31A022B07D9032350E1003802403C
:1011440000004742800E4742884B5B6F03F0020366
:10115400002BEAD17B681B6803F00403002B00F02A
:1011640097800023FB75814B1B6C03F08053002B8D
:101174000FD10023BB607D4B1B6C7C4A43F0805332
:1011840013647A4B1B6C03F08053BB60BB68012370
:10119400FB75774B1B6803F48073002B18D1744BD9
:1011A4001B68734A43F480731360FFF7DBFB3861F9
:1011B40008E0FFF7D7FB02463B69D31A022B01D99B
:1011C40003230CE16A4B1B6803F48073002BF0D0FB
:1011D4007B689B68012B06D1644B1B6F634A43F009
:1011E400010313671CE07B689B68052B0CD15F4BE4
:1011F4001B6F5E4A43F0040313675C4B1B6F5B4A2F
:1012040043F0010313670BE0584B1B6F574A23F05D
:1012140001031367554B1B6F544A23F004031367F0
:101224007B689B68002B15D0FFF79CFB38610AE0B4
:10123400FFF798FB02463B69D31A41F28832934286
:1012440001D90323CBE0494B1B6F03F00203002BAE
:10125400EED014E0FFF786FB38610AE0FFF782FB6B
:1012640002463B69D31A41F28832934201D90323DF
:10127400B5E03E4B1B6F03F00203002BEED1FB7D68
:10128400012B05D1394B1B6C384A23F0805313646E
:101294007B689B69002B00F0A180344B9B6803F0B2
:1012A4000C03082B5CD07B689B69022B41D1314B2A
:1012B40000221A60FFF756FB386108E0FFF752FB83
:1012C40002463B69D31A022B01D9032387E0274B3B
:1012D4001B6803F00073002BF0D17B68DA697B682C
:1012E4001B6A1A437B685B6A9B011A437B689B6A8F
:1012F4005B08013B1B041A437B68DB6A1B061B4922
:1013040013434B601B4B01221A60FFF72BFB386120
:1013140008E0FFF727FB02463B69D31A022B01D9E9
:1013240003235CE0114B1B6803F00073002BF0D027
:1013340054E0104B00221A60FFF714FB386108E0F8
:10134400FFF710FB02463B69D31A022B01D9032392
:1013540045E0064B1B6803F00073002BF0D13DE021
:101364007B689B69012B07D1012338E000380240D8
:1013740000700040600047421B4B5B68FB607B6869
:101384009B69012B28D0FB6803F480027B68DB692E
:101394009A4221D1FB6803F03F027B681B6A9A42A0
:1013A4001AD1FA6847F6C07313407A68526A9201F8
:1013B400934211D1FB6803F440327B689B6A5B085B
:1013C400013B1B049A4207D1FB6803F070627B68FF
:1013D400DB6A1B069A4201D0012300E00023184671
:1013E4001837BD4680BD00BF0038024080B584B0C8
:1013F40000AF786039607B68002B01D10123CCE019
:10140400684B1B6803F007033A689A420CD9654B92
:101414003A68D2B21A70634B1B6803F007033A6848
:101424009A4201D00123B8E07B681B6803F00203F1
:10143400002B20D07B681B6803F00403002B05D02D
:10144400594B9B68584A43F4E05393607B681B688C
:1014540003F00803002B05D0534B9B68524A43F416
:1014640060439360504B9B6823F0F0027B689B6859
:101474004D4913438B607B681B6803F00103002B09
:1014840044D07B685B68012B07D1474B1B6803F48E
:101494000033002B19D101237FE07B685B68022BAA
:1014A40003D07B685B68032B07D13F4B1B6803F0B9
:1014B4000073002B09D101236FE03B4B1B6803F041
:1014C4000203002B01D1012367E0374B9B6823F013
:1014D40003027B685B68344913438B60FFF742FA6D
:1014E400F8600AE0FFF73EFA0246FB68D31A41F2BD
:1014F4008832934201D903234FE02B4B9B6803F0BE
:101504000C027B685B689B009A42EBD1254B1B68FD
:1015140003F007033A689A420CD2224B3A68D2B2DB
:101524001A70204B1B6803F007033A689A4201D0F3
:10153400012332E07B681B6803F00403002B08D00E
:10154400194B9B6823F4E0527B68DB68164913430C
:101554008B607B681B6803F00803002B09D0124BD7
:101564009B6823F460427B681B69DB000E491343CC
:101574008B6000F021F802460B4B9B681B0903F0BB
:101584000F030A49CB5C22FA03F3094A1360094B9F
:101594001B681846FFF7A2F9002318461037BD460A
:1015A40080BD00BF003C024000380240C81700085C
:1015B40000000020040000202DE9B04F90B000AFDF
:1015C40000237B630023FB6300233B630023BB6393
:1015D400594B9B6803F00C03082B0DD0082B00F229
:1015E400A180002B02D0042B03D09BE0534BBB63A0
:1015F4009BE0534BBB6398E04F4B5B6803F03F03A6
:101604007B634D4B5B6803F48003002B28D04A4B6B
:101614005B689B0900223B627A623B6AC3F3080061
:101624000021474B03FB01F2002300FB03F31344A7
:10163400434AA0FB0212FA620A46BA62FA6A1344E7
:10164400FB627B6B0022BB61FA61D7E90623D7E911
:101654000A01FEF7BDFD02460B461346FB6353E049
:10166400354B5B689B0900223B617A613B69C3F39C
:10167400080A4FF0000B52465B464FF000004FF053
:101684000001590141EAD261500102460B46B2EB16
:101694000A0863EB0B094FF000024FF000034FEA16
:1016A400891343EA98634FEA8812B2EB080463EBA8
:1016B40009054FF000024FF00003EB0043EA5473B6
:1016C400E20014461D4614EB0A033B6045EB0B0392
:1016D4007B604FF000024FF00003D7E90045294634
:1016E4008B02214643EA915321468A021046194649
:1016F4007B6B0022BB60FA60D7E90223FEF768FD2A
:1017040002460B461346FB630B4B5B681B0C03F052
:10171400030301335B003B63FA6B3B6BB2FBF3F3F4
:10172400BB6302E0054BBB6300BFBB6B184640378D
:10173400BD46BDE8B08F00BF003802400024F4006D
:1017440040787D0170B50D4D0D4C641BA41000262E
:10175400A64209D10B4D0C4C00F020F8641BA410D8
:101764000026A64205D170BD55F8043B98470136C2
:10177400EEE755F8043B98470136F2E7E017000816
:10178400E0170008E0170008E417000802440346C5
:10179400934200D1704703F8011BF9E7F8B500BF85
:1017A400F8BC08BC9E467047F8B500BFF8BC08BC3E
:0417B4009E46704796
:1017B8003F065B4F666D7D077F6F777C395E797179
:1017C80000000000000000000102030406070809E9
:0817D8002CEAFF7F0100000074
:0417E000B901000843
:0417E4009501000863
:0C17E8000024F4001000000001000000CC
:04000005080008499E
:00000001FF
