:020000040800F2
:1000000000800120090B0008710A0008770A000827
:100010007D0A0008830A0008890A00080000000021
:100020000000000000000000000000008F0A00082F
:100030009D0A000800000000AB0A0008B90A000889
:10004000590B0008590B0008590B0008590B000800
:10005000590B0008590B0008590B0008590B0008F0
:10006000590B0008590B0008590B0008590B0008E0
:10007000590B0008590B0008590B0008590B0008D0
:10008000590B0008590B0008590B0008000000002C
:10009000000000000000000000000000C50A000889
:1000A000590B0008590B0008590B0008590B0008A0
:1000B000590B0008590B0008590B0008590B000890
:1000C000590B0008590B0008590B0008590B000880
:1000D000590B0008590B0008590B000800000000DC
:1000E000D30A0008590B0008590B00080000000053
:1000F000000000000000000000000000590B000894
:1001000000000000590B0008590B0008590B0008AB
:1001100000000000000000000000000000000000DF
:10012000590B0008590B0008590B0008590B00081F
:10013000590B000800000000000000000000000053
:10014000000000000000000000000000590B000843
:10015000590B0008590B0008590B0008590B0008EF
:10016000590B0008590B00080000000000000000B7
:10017000000000000000000000000000000000007F
:1001800000000000590B0008000000000000000003
:04019000590B0008FF
:1001940010B5054C237833B9044B13B10448AFF3BD
:1001A40000800123237010BD100000200000000017
:1001B400701A000808B5034B1BB103490348AFF399
:1001C400008008BD0000000014000020701A000820
:1001D40053B94AB9002908BF00281CBF4FF0FF31AA
:1001E4004FF0FF3000F070B9ADF1080C6DE904CEAA
:1001F40000F006F8DDF804E0DDE9022304B07047FE
:100204002DE9F047089E0D4604460F46002B4AD1BF
:100214008A42944665D9B2FA82F343B102FA03FCE6
:10022400C3F120029F4020FA02F217439C404FEA98
:100234001C4E1FFA8CF5B7FBFEF1220C0EFB117756
:1002440042EA074201FB05F090420AD91CEB020284
:1002540001F1FF3780F01C81904240F2198102398C
:100264006244121AA4B2B2FBFEF00EFB102244EA5E
:10027400024400FB05F5A5420AD91CEB040400F175
:10028400FF3280F00781A54240F2048164440238C1
:1002940040EA0140641B00211EB1DC400023C6E992
:1002A4000043BDE8F0878B4208D9002E00F0ED80B2
:1002B4000021C6E900050846BDE8F087B3FA83F1DA
:1002C400002949D1AB4202D3824200F2F880841A59
:1002D40065EB030201201746002EE2D0C6E9004771
:1002E400DFE702B9FFDEB2FA82F3002B40F0908020
:1002F4008A1A4FEA1C471FFA8CFE0121B2FBF7F55C
:1003040007FB1520220C42EA00420EFB05F0904246
:1003140008D91CEB020205F1FF3802D2904200F228
:10032400CB804546121AA4B2B2FBF7F007FB1022A9
:1003340044EA02440EFB00FEA64508D91CEB040463
:1003440000F1FF3202D2A64500F2BB801046A4EBB6
:100354000E0440EA05409FE7C1F120078B4022FAD2
:1003640007FC4CEA030C05FA01F420FA07F3FD40FC
:100374004FEA1C492343B5FBF9F81FFA8CFE09FB2D
:1003840018551C0C44EA054408FB0EF5A54202FA74
:1003940001F200FA01F00BD91CEB040408F1FF3A56
:1003A40080F08880A54240F28580A8F10208644468
:1003B400641B9DB2B4FBF9F309FB134445EA0444FE
:1003C40003FB0EFEA64508D91CEB040403F1FF351C
:1003D4006CD2A6456AD9023B644443EA0843A3FBB2
:1003E4000295A4EB0E04AC42C846AE4656D353D095
:1003F40056B1B0EB080264EB0E0404FA07F7CA40E6
:10040400CC401743C6E9007418460021BDE8F087C4
:10041400C3F1200102FA03FC20FA01F225FA01F1EA
:100424009D402A434FEA1C471FFA8CFEB1FBF7F0AC
:1004340007FB1015110C41EA054100FB0EF58D4236
:1004440004FA03F408D91CEB010100F1FF382FD2A0
:100454008D422DD902386144491B92B2B1FBF7F5A4
:1004640007FB151142EA014205FB0EF1914208D93E
:100474001CEB020205F1FF3816D2914214D9023D59
:100484006244521A45EA004138E73146304608E7EB
:100494003946E6E61046FBE64845A9D2B9EB020820
:1004A40065EB0C0E013BA3E74546EAE72B4694E7D0
:1004B4004046D1E7D0467BE7023D624432E7084636
:1004C4000AE76444023842E7704700BF80B400AFD3
:1004D400054B1B68054A03FB02F2054B13441846FF
:1004E400BD465DF8047B7047300000200D6619009E
:1004F4005FF36E3C80B584B000AF00F02DFB00F0DC
:1005040099F800F0F7F80023FB6018E0FB68C3F1EA
:100514000E03012202FA03F399B20122FB6802FAE4
:1005240003F35AB23B4B1B785BB213405BB2DBB2B2
:100534001A46394800F018FEFB680133FB60FB687B
:10054400032BE3DDFFF7C2FF0346DAB2334BA3FB11
:10055400021399090B465B000B4459010B44D31A4F
:10056400DBB20133DAB22E4B1A702D4B1A782D4BB5
:10057400A3FB0213D9080B469B000B445B00D31A60
:10058400DAB2294B1A700023BB6017E0BB6808334A
:10059400012202FA03F399B20122BB6802FA03F3BF
:1005A4005AB2214B1B785BB213405BB2DBB21A46E2
:1005B4001E4800F0D9FDBB680133BB60BB68032B48
:1005C400E4DD174B1B78174AA2FB0323DB08DAB2DE
:1005D400174B1A7000237B6017E07B680C330122F1
:1005E40002FA03F399B201227B6802FA03F35AB2C6
:1005F4000F4B1B785BB213405BB2DBB21A460B485D
:1006040000F0B2FD7B6801337B607B68032BE4DD83
:10061400FEE700BF00000020000C024003B57EA5E9
:100624002C000020CDCCCCCC2D00002000000240BA
:100634002E00002080B594B000AF07F120033022D3
:100644000021184601F0E6F907F10C0300221A60B4
:100654005A609A60DA601A610023BB60234B1B6CFA
:10066400224A43F080531364204B1B6C03F08053E5
:10067400BB60BB6800237B601D4B1B6823F44043B5
:100684001B4A43F400431360194B1B6803F44043B3
:100694007B607B6802233B620123FB6210233B6384
:1006A4000023BB6307F12003184600F08FFD0346C7
:1006B400002B01D000F0ACF90F23FB6000233B6159
:1006C40000237B610023BB610023FB6107F10C0362
:1006D4000021184600F0F2FF0346002B01D000F081
:1006E40097F900BF5037BD4680BD00BF00380240B7
:1006F4000070004080B588B000AF07F10C03002201
:100704001A605A609A60DA601A610023BB604B4B2E
:100714001B6B4A4A43F001031363484B1B6B03F002
:100724000103BB60BB6800237B60444B1B6B434AE3
:1007340043F010031363414B1B6B03F010037B6006
:100744007B6800233B603D4B1B6B3C4A43F0080332
:1007540013633A4B1B6B03F008033B603B680022B6
:100764004FF47041364800F0FFFC00224FF4F04192
:10077400344800F0F9FC00224FF47F41324800F085
:10078400F3FC8023FB604FF404133B6102237B6181
:1007940007F10C0319462C4800F062FB4FF4704338
:1007A400FB6001233B6100237B610023BB6107F1F4
:1007B4000C031946224800F053FB4FF4F043FB604E
:1007C40001233B6100237B610023BB6107F10C0320
:1007D40019461C4800F044FB4FF40043FB604FF4FF
:1007E40004133B6102237B6107F10C03194615488E
:1007F40000F036FB4FF47F43FB6001233B61002391
:100804007B610023BB6107F10C0319460E4800F01D
:1008140027FB00220021172000F0EBFA172000F03C
:1008240004FB00220021282000F0E3FA282000F035
:10083400FCFA00BF2037BD4680BD00BF003802402F
:1008440000100240000C02400000024080B588B055
:1008540000AF0346FB80FB88B3F5004F2ED1624BFB
:100864001A78624BA3FB021359080B46DB000B44B6
:10087400D31ADBB20133DAB25B4B1A700023FB618B
:1008840018E0FB69C3F10E03012202FA03F399B2E3
:100894000122FB6902FA03F35AB2534B1B785BB291
:1008A40013405BB2DBB21A46514800F05DFCFB69B1
:1008B4000133FB61FB69032BE3DD68E0FB88802BDC
:1008C40065D1FFF703FE0346DAB24A4BA3FB0213DA
:1008D40099090B465B000B4459010B44D31ADBB254
:1008E4000133DAB2444B1A70434B1A78434BA3FBDF
:1008F4000213D9080B469B000B445B00D31ADAB2EF
:100904003F4B1A700023BB6117E0BB690833012217
:1009140002FA03F399B20122BB6902FA03F35AB251
:10092400374B1B785BB213405BB2DBB21A463548D7
:1009340000F01AFCBB690133BB61BB69032BE4DD26
:100944002D4B1B782D4AA2FB0323DB08DAB22E4B76
:100954001A7000237B6117E07B690C33012202FAD1
:1009640003F399B201227B6902FA03F35AB2264BCC
:100974001B785BB213405BB2DBB21A46214800F02D
:10098400F3FB7B6901337B617B69032BE4DD1A4B49
:100994001B78154A1278B3FBF2F101FB02F29B1AA1
:1009A400FB7300233B6117E03B69C3F10F03012292
:1009B40002FA03F399B201223B6902FA03F35AB231
:1009C40097F90F3013405BB2DBB21A460F4800F0C0
:1009D400CBFB3B6901333B613B69032BE4DD00BF87
:1009E40000BF2037BD4680BD00000020398EE338AB
:1009F400000C024003B57EA52C000020CDCCCCCC4D
:100A04002D000020000002402E00002000100240B3
:100A140080B400AF72B600BFFEE7000080B483B0BC
:100A240000AF00237B60104B5B6C0F4A43F48043A0
:100A340053640D4B5B6C03F480437B607B68002341
:100A44003B60094B1B6C084A43F080531364064B0C
:100A54001B6C03F080533B603B6800BF0C37BD4602
:100A64005DF8047B704700BF0038024080B400AFDB
:100A7400FEE780B400AFFEE780B400AFFEE780B4C9
:100A840000AFFEE780B400AFFEE780B400AF00BF64
:100A9400BD465DF8047B704780B400AF00BFBD461F
:100AA4005DF8047B704780B400AF00BFBD465DF8BD
:100AB400047B704780B500AF00F0A0F800BF80BD94
:100AC40080B500AF802000F069FB00BF80BD80B519
:100AD40000AF4FF4004000F061FB00BF80BD000098
:100AE40080B400AF064BD3F88830054A43F4700352
:100AF400C2F8883000BFBD465DF8047B704700BF74
:100B040000ED00E0DFF834D00D480E490E4A002312
:100B140002E0D458C4500433C4188C42F9D30B4AAD
:100B24000B4C002301E013600432A242FBD3FFF715
:100B3400D7FF00F077FFFFF7DDFC7047008001204E
:100B44000000002010000020A81A00081000002057
:100B540034000020FEE7000080B500AF0E4B1B6898
:100B64000D4A43F4007313600B4B1B680A4A43F4A9
:100B740080631360084B1B68074A43F48073136057
:100B8400032000F02BF90F2000F008F8FFF746FFD0
:100B94000023184680BD00BF003C024080B582B0EF
:100BA40000AF7860124B1A68124B1B7819464FF449
:100BB4007A73B3FBF1F3B2FBF3F3184600F043F995
:100BC4000346002B01D001230EE07B680F2B0AD8CB
:100BD400002279684FF0FF3000F00BF9064A7B6879
:100BE4001360002300E0012318460837BD4680BD8A
:100BF400040000200C0000200800002080B400AF96
:100C0400064B1B781A46064B1B681344044A1360B0
:100C140000BFBD465DF8047B704700BF0C00002098
:100C24003000002080B400AF034B1B681846BD465B
:100C34005DF8047B704700BF3000002080B485B0AD
:100C440000AF78607B6803F00703FB600C4BDB6844
:100C5400BB60BA684FF6FF031340BB60FB681A021F
:100C6400BB68134343F0BF6343F40033BB60044ADF
:100C7400BB68D36000BF1437BD465DF8047B704782
:100C840000ED00E080B400AF044BDB681B0A03F006
:100C940007031846BD465DF8047B704700ED00E08D
:100CA40080B483B000AF0346FB7197F90730002B83
:100CB4000BDBFB7903F01F02074997F907305B0947
:100CC400012000FA02F241F8232000BF0C37BD4690
:100CD4005DF8047B704700BF00E100E080B483B09E
:100CE40000AF03463960FB7197F90730002B0ADB2C
:100CF4003B68DAB20C4997F907301201D2B20B44BF
:100D040083F800230AE03B68DAB20849FB7903F070
:100D14000F03043B1201D2B20B441A7600BF0C3706
:100D2400BD465DF8047B704700E100E000ED00E0A3
:100D340080B489B000AFF860B9607A60FB6803F0F2
:100D44000703FB61FB69C3F10703042B28BF0423DA
:100D5400BB61FB690433062B02D9FB69033B00E04A
:100D640000237B614FF0FF32BB6902FA03F3DA43DD
:100D7400BB681A407B699A404FF0FF317B6901FAE6
:100D840003F3D9437B680B40134318462437BD460D
:100D94005DF8047B7047000080B582B000AF7860D6
:100DA4007B68013BB3F1807F01D301230FE00A4A42
:100DB4007B68013B53600F214FF0FF30FFF78EFF3C
:100DC400054B00229A60044B07221A600023184640
:100DD4000837BD4680BD00BF10E000E080B582B09A
:100DE40000AF78607868FFF729FF00BF0837BD4679
:100DF40080BD80B586B000AF0346B9607A60FB73EE
:100E040000237B61FFF73EFF78617A68B9687869EF
:100E1400FFF78EFF024697F90F3011461846FFF789
:100E24005DFF00BF1837BD4680BD80B582B000AFFE
:100E34000346FB7197F907301846FFF731FF00BFEF
:100E44000837BD4680BD80B582B000AF7860786851
:100E5400FFF7A2FF034618460837BD4680BD0000D1
:100E640080B489B000AF7860396000237B610023CF
:100E74003B610023BB610023FB6159E10122FB6953
:100E840002FA03F37B613B681B687A6913403B6198
:100E94003A697B699A4240F048813B685B6803F099
:100EA4000303012B05D03B685B6803F00303022BAB
:100EB40030D17B689B68BB61FB695B00032202FA4B
:100EC40003F3DB43BA691340BB613B68DA68FB692F
:100ED4005B0002FA03F3BA691343BB617B68BA6926
:100EE4009A607B685B68BB610122FB6902FA03F3C9
:100EF400DB43BA691340BB613B685B681B0903F0C1
:100F04000102FB6902FA03F3BA691343BB617B680C
:100F1400BA695A603B685B6803F00303032B17D07C
:100F24007B68DB68BB61FB695B00032202FA03F3A5
:100F3400DB43BA691340BB613B689A68FB695B0099
:100F440002FA03F3BA691343BB617B68BA69DA60D6
:100F54003B685B6803F00303022B23D1FB69DA08C7
:100F64007B68083253F82230BB61FB6903F0070346
:100F74009B000F2202FA03F3DB43BA691340BB61FF
:100F84003B681A69FB6903F007039B0002FA03F349
:100F9400BA691343BB61FB69DA087B680832B96933
:100FA40043F822107B681B68BB61FB695B0003226A
:100FB40002FA03F3DB43BA691340BB613B685B6825
:100FC40003F00302FB695B0002FA03F3BA691343FB
:100FD400BB617B68BA691A603B685B6803F44033A1
:100FE400002B00F0A2800023FB60574B5B6C564A39
:100FF40043F480435364544B5B6C03F48043FB60C1
:10100400FB68524AFB699B08023352F82330BB61E8
:10101400FB6903F003039B000F2202FA03F3DB4393
:10102400BA691340BB617B68494A934219D07B6813
:10103400484A934213D07B68474A93420DD07B6859
:10104400464A934207D07B68454A934201D1042320
:1010540008E0072306E0032304E0022302E001235F
:1010640000E00023FA6902F0030292009340BA6997
:101074001343BB613549FB699B080233BA6941F8E4
:101084002320384B9B68BB613B69DB43BA6913403F
:10109400BB613B685B6803F48013002B03D0BA691F
:1010A4003B691343BB612F4ABB6993602D4BDB68DB
:1010B400BB613B69DB43BA691340BB613B685B6856
:1010C40003F40013002B03D0BA693B691343BB61DB
:1010D400244ABB69D360234B5B68BB613B69DB4338
:1010E400BA691340BB613B685B6803F40033002BAF
:1010F40003D0BA693B691343BB611A4ABB695360A5
:10110400184B1B68BB613B69DB43BA691340BB6185
:101114003B685B6803F48033002B03D0BA693B69F6
:101124001343BB610F4ABB691360FB690133FB6165
:10113400FB690F2B7FF6A2AE00BF00BF2437BD466C
:101144005DF8047B704700BF00380240003801405E
:10115400000002400004024000080240000C02406B
:1011640000100240003C014080B483B000AF7860BE
:101174000B467B8013467B707B78002B03D07A88E8
:101184007B689A6103E07B881A047B689A6100BFDC
:101194000C37BD465DF8047B7047000080B582B013
:1011A40000AF0346FB80084B5A69FB881340002BB1
:1011B40006D0054AFB885361FB881846FFF746FBB7
:1011C40000BF0837BD4680BD003C014080B586B0F5
:1011D40000AF78607B68002B01D1012367E27B6854
:1011E4001B6803F00103002B75D0884B9B6803F048
:1011F4000C03042B0CD0854B9B6803F00C03082BC9
:1012040012D1824B5B6803F48003B3F5800F0BD1DA
:101214007E4B1B6803F40033002B5BD07B685B6858
:10122400002B57D1012342E27B685B68B3F5803F12
:1012340006D1764B1B68754A43F4803313601DE076
:101244007B685B68B3F5A02F0CD1704B1B686F4AA9
:1012540043F4802313606D4B1B686C4A43F4803362
:1012640013600BE0694B1B68684A23F480331360F6
:10127400664B1B68654A23F4802313607B685B68B4
:10128400002B13D0FFF7CEFC386108E0FFF7CAFC4F
:1012940002463B69D31A642B01D9032307E25B4B53
:1012A4001B6803F40033002BF0D014E0FFF7BAFC02
:1012B400386108E0FFF7B6FC02463B69D31A642B99
:1012C40001D90323F3E1514B1B6803F40033002BD2
:1012D400F0D100E000BF7B681B6803F00203002B21
:1012E40063D04A4B9B6803F00C03002B0BD0474B95
:1012F4009B6803F00C03082B1CD1444B5B6803F47C
:101304008003002B16D1414B1B6803F00203002B12
:1013140005D07B68DB68012B01D00123C7E13B4B7F
:101324001B6823F0F8027B681B69DB003749134311
:101334000B603AE07B68DB68002B20D0344B012241
:101344001A60FFF76FFC386108E0FFF76BFC024698
:101354003B69D31A022B01D90323A8E12B4B1B6849
:1013640003F00203002BF0D0284B1B6823F0F80293
:101374007B681B69DB00254913430B6015E0244B94
:1013840000221A60FFF74EFC386108E0FFF74AFCC0
:1013940002463B69D31A022B01D9032387E11B4B75
:1013A4001B6803F00203002BF0D17B681B6803F079
:1013B4000803002B36D07B685B69002B16D0154BD5
:1013C40001221A60FFF72EFC386108E0FFF72AFCBF
:1013D40002463B69D31A022B01D9032367E10B4B65
:1013E4005B6F03F00203002BF0D01BE0094B0022DB
:1013F4001A60FFF717FC38610EE0FFF713FC024692
:101404003B69D31A022B07D9032350E10038024069
:1014140000004742800E4742884B5B6F03F0020393
:10142400002BEAD17B681B6803F00403002B00F057
:1014340097800023FB75814B1B6C03F08053002BBA
:101444000FD10023BB607D4B1B6C7C4A43F080535F
:1014540013647A4B1B6C03F08053BB60BB6801239D
:10146400FB75774B1B6803F48073002B18D1744B06
:101474001B68734A43F480731360FFF7D3FB38612E
:1014840008E0FFF7CFFB02463B69D31A022B01D9D0
:1014940003230CE16A4B1B6803F48073002BF0D028
:1014A4007B689B68012B06D1644B1B6F634A43F036
:1014B400010313671CE07B689B68052B0CD15F4B11
:1014C4001B6F5E4A43F0040313675C4B1B6F5B4A5C
:1014D40043F0010313670BE0584B1B6F574A23F08B
:1014E40001031367554B1B6F544A23F0040313671E
:1014F4007B689B68002B15D0FFF794FB38610AE0EA
:10150400FFF790FB02463B69D31A41F288329342BB
:1015140001D90323CBE0494B1B6F03F00203002BDB
:10152400EED014E0FFF77EFB38610AE0FFF77AFBA8
:1015340002463B69D31A41F28832934201D903230C
:10154400B5E03E4B1B6F03F00203002BEED1FB7D95
:10155400012B05D1394B1B6C384A23F0805313649B
:101564007B689B69002B00F0A180344B9B6803F0DF
:101574000C03082B5CD07B689B69022B41D1314B57
:1015840000221A60FFF74EFB386108E0FFF74AFBC0
:1015940002463B69D31A022B01D9032387E0274B68
:1015A4001B6803F00073002BF0D17B68DA697B6859
:1015B4001B6A1A437B685B6A9B011A437B689B6ABC
:1015C4005B08013B1B041A437B68DB6A1B061B494F
:1015D40013434B601B4B01221A60FFF723FB386156
:1015E40008E0FFF71FFB02463B69D31A022B01D91F
:1015F40003235CE0114B1B6803F00073002BF0D055
:1016040054E0104B00221A60FFF70CFB386108E02D
:10161400FFF708FB02463B69D31A022B01D90323C7
:1016240045E0064B1B6803F00073002BF0D13DE04E
:101634007B689B69012B07D1012338E00038024005
:1016440000700040600047421B4B5B68FB607B6896
:101654009B69012B28D0FB6803F480027B68DB695B
:101664009A4221D1FB6803F03F027B681B6A9A42CD
:101674001AD1FA6847F6C07313407A68526A920125
:10168400934211D1FB6803F440327B689B6A5B0888
:10169400013B1B049A4207D1FB6803F070627B682C
:1016A400DB6A1B069A4201D0012300E0002318469E
:1016B4001837BD4680BD00BF0038024080B584B0F5
:1016C40000AF786039607B68002B01D10123CCE046
:1016D400684B1B6803F007033A689A420CD9654BC0
:1016E4003A68D2B21A70634B1B6803F007033A6876
:1016F4009A4201D00123B8E07B681B6803F002031F
:10170400002B20D07B681B6803F00403002B05D05A
:10171400594B9B68584A43F4E05393607B681B68B9
:1017240003F00803002B05D0534B9B68524A43F443
:1017340060439360504B9B6823F0F0027B689B6886
:101744004D4913438B607B681B6803F00103002B36
:1017540044D07B685B68012B07D1474B1B6803F4BB
:101764000033002B19D101237FE07B685B68022BD7
:1017740003D07B685B68032B07D13F4B1B6803F0E6
:101784000073002B09D101236FE03B4B1B6803F06E
:101794000203002B01D1012367E0374B9B6823F040
:1017A40003027B685B68344913438B60FFF73AFAA2
:1017B400F8600AE0FFF736FA0246FB68D31A41F2F2
:1017C4008832934201D903234FE02B4B9B6803F0EB
:1017D4000C027B685B689B009A42EBD1254B1B682B
:1017E40003F007033A689A420CD2224B3A68D2B209
:1017F4001A70204B1B6803F007033A689A4201D021
:10180400012332E07B681B6803F00403002B08D03B
:10181400194B9B6823F4E0527B68DB681649134339
:101824008B607B681B6803F00803002B09D0124B04
:101834009B6823F460427B681B69DB000E491343F9
:101844008B6000F021F802460B4B9B681B0903F0E8
:101854000F030A49CB5C22FA03F3094A1360094BCC
:101864001B681846FFF79AF9002318461037BD463F
:1018740080BD00BF003C024000380240881A0008C6
:1018840004000020080000202DE9B04F90B000AF04
:1018940000237B630023FB6300233B630023BB63C0
:1018A400594B9B6803F00C03082B0DD0082B00F256
:1018B400A180002B02D0042B03D09BE0534BBB63CD
:1018C4009BE0534BBB6398E04F4B5B6803F03F03D3
:1018D4007B634D4B5B6803F48003002B28D04A4B99
:1018E4005B689B0900223B627A623B6AC3F308008F
:1018F4000021474B03FB01F2002300FB03F31344D5
:10190400434AA0FB0212FA620A46BA62FA6A134414
:10191400FB627B6B0022BB61FA61D7E90623D7E93E
:101924000A01FEF755FC02460B461346FB6353E0DF
:10193400354B5B689B0900223B617A613B69C3F3C9
:10194400080A4FF0000B52465B464FF000004FF080
:101954000001590141EAD261500102460B46B2EB43
:101964000A0863EB0B094FF000024FF000034FEA43
:10197400891343EA98634FEA8812B2EB080463EBD5
:1019840009054FF000024FF00003EB0043EA5473E3
:10199400E20014461D4614EB0A033B6045EB0B03BF
:1019A4007B604FF000024FF00003D7E90045294661
:1019B4008B02214643EA915321468A021046194676
:1019C4007B6B0022BB60FA60D7E90223FEF700FCC0
:1019D40002460B461346FB630B4B5B681B0C03F080
:1019E400030301335B003B63FA6B3B6BB2FBF3F322
:1019F400BB6302E0054BBB6300BFBB6B18464037BB
:101A0400BD46BDE8B08F00BF003802400024F4009A
:101A140040787D0102440346934200D1704703F8A5
:101A2400011BF9E770B50D4D0D4C641BA410002685
:101A3400A64209D10B4D0C4C00F018F8641BA410FD
:101A44000026A64205D170BD55F8043B98470136DF
:101A5400EEE755F8043B98470136F2E7A01A000870
:101A6400A01A0008A01A0008A41A0008F8B500BFBC
:101A7400F8BC08BC9E467047F8B500BFF8BC08BC6B
:041A84009E467047C3
:101A88000000000000000000010203040607080926
:081A98006CE7FF7F0100000074
:041AA000B901000880
:041AA40095010008A0
:101AA800010000000024F400100000000100000004
:0400000508000B09DB
:00000001FF
